:020000040800F2
:100000000807002079020008831600081F14000862
:10001000811600087F0300086B1B00080000000029
:10002000000000000000000000000000871600082B
:1000300081030008000000008516000889160008EA
:10004000930200089302000893020008930200083C
:10005000930200089302000893020008930200082C
:10006000930200089302000893020008930200081C
:10007000930200089302000893020008930200080C
:100080009302000800000000930200089302000899
:1000900093020008930200089302000893020008EC
:1000A0001517000893020008930200089302000845
:1000B00093020008930200089302000893020008CC
:1000C00093020008930200089302000893020008BC
:1000D00093020008930200089302000893020008AC
:1000E000930200089302000893020008930200089C
:1000F0009302000893020008930200080000000029
:1001000000000000930200080000000093020008B5
:100110009302000800000000930200089302000808
:10012000930200089302000893020008930200085B
:100130009302000800000000000000009302000885
:100140009302000893020008000000000000000075
:10015000000000000000000000000000000000009F
:1001600000000000000000000000000093020008F2
:1001700093020008000000000000000000000000E2
:1001800000000000930200080000000000000000D2
:10019000000000000000000000000000000000005F
:1001A0000000000000000000930200089302000815
:1001B0009302000893020008930200080000000068
:1001C0000000000093020008000000000000000092
:1001D000930200089302000800F002F800F03CF8D7
:1001E0000AA090E8000C82448344AAF10107DA4592
:1001F00001D100F031F8AFF2090EBAE80F0013F0A8
:10020000010F18BFFB1A43F001031847D41900006F
:10021000F4190000103A24BF78C878C1FAD8520700
:1002200024BF30C830C144BF04680C607047000070
:100230000023002400250026103A28BF78C1FBD8EF
:10024000520728BF30C148BF0B6070471FB501F08F
:10025000B9FC1FBD10B510BD00F058F81146FFF7EE
:10026000F5FF01F093FC00F076F803B4FFF7F2FF1E
:1002700003BC00F07DF800000948804709480047AA
:10028000FEE7FEE7FEE7FEE7FEE7FEE7FEE7FEE746
:10029000FEE7FEE704480549054A064B70470000A3
:1002A000F9160008D90100080801002008070020FD
:1002B00008030020080300204FF0000200B5134699
:1002C00094469646203922BFA0E80C50A0E80C5076
:1002D000B1F12001BFF4F7AF090728BFA0E80C5027
:1002E00048BF0CC05DF804EB890028BF40F8042B20
:1002F00008BF704748BF20F8022B11F0804F18BF8D
:1003000000F8012B7047704770477047754600F042
:100310002BF8AE4605006946534620F00700854697
:1003200018B020B5FFF7B6FFBDE820404FF000063B
:100330004FF000074FF000084FF0000B21F00701CD
:10034000AC46ACE8C009ACE8C009ACE8C009ACE810
:10035000C0098D46704710B50446AFF300802046B3
:10036000BDE81040FFF781BF00487047A80000209B
:1003700001491820ABBEFEE7260002007047FEE7E9
:1003800070474FF47A714843401EFDD2704772B6F1
:10039000FEE700002DE9FC4FDFF8A0A100230125B6
:1003A0000AF1040B03244FF00F0C0BF1040EBDE017
:1003B00005FA03F632406FD04F68012F05D0022FA7
:1003C00003D0112F01D0122F17D1D0F808905F0061
:1003D00004FA07F829EA08090097D1F80C8008FA0E
:1003E00007F848EA0908C0F808804768B7430E795B
:1003F000C6F300169E403E434660C6684FEA430877
:1004000004FA08F7BE4301978F6807FA08F73743E5
:10041000C7604E68022E01D0122E13D1DE0800EB09
:1004200086060096366A5F07FF0E0CFA07F926EA81
:100430000906D1F8109009FA07F949EA0609009E61
:10044000C6F820900668019FBE430F7907F00307A6
:1004500007FA08F7374307604E68F60065D5384E4F
:10046000376E47F001073766366E23F0030706F054
:1004700001060096334E3E44B146B6689F074FEAE8
:1004800017780CFA08F7BE43B0F1904F05D02E4F05
:10049000B84204D1012717E047E0002714E02B4FB2
:1004A000B84201D102270FE0294FB84201D10327FA
:1004B0000AE0284FB84201D1042705E0264FB84290
:1004C00001D1052700E0062707FA08F73743C9F8E6
:1004D0000870DAF800605746D1F8048096435FEA66
:1004E000C83800D516433E60DBF800605F46D1F89F
:1004F000048096435FEA883800D516433E60DEF8F4
:1005000000607746D1F8048096435FEAC82800D59A
:1005100016433E60094F0C373E68D1F8048096437D
:100520005FEA882800D516433E605B1C0A6832FAF1
:1005300003F67FF43DAFBDE8FC8F000000040140EE
:10054000001002400000014000040048000800487C
:10055000000C004800100048001400480AB18161F6
:100560007047816270470000014880687047000052
:100570000000002002488168426811448160704791
:100580000000002010B50024032000F073F80F20B5
:1005900000F008F808B1012401E000F025F8204639
:1005A00010BD000070B50E4E05460024706898B16D
:1005B0004FF47A71B1FBF0F00A490968B1FBF0F031
:1005C00000F0FCFB40B9102D06D200222946501E37
:1005D00000F030F8356000E00124204670BD0000D6
:1005E000000000200C0000200A4882B0016E41F09B
:1005F00001010166016E01F001010091816D41F080
:1006000080518165806D00F08050009002B000F054
:10061000A1B8000000100240002809DB00F01F0212
:10062000012191404009800000F1E020C0F8001154
:1006300070470000F0B40E4B1B680C46C3F3022356
:10064000C3F10705042D00D90425191D072901D27E
:10065000002300E0DB1E012606FA05F1491E2140B9
:1006600099409E40761E16403143F0BC01F07EBAA0
:100670000CED00E0064900F0070208684FF6FF03A2
:10068000184040EA0220034A104308607047000007
:100690000CED00E00000FA052B492C4B0A683221D2
:1006A0004A432B4940B1B0F5007F086829D020F4B7
:1006B000C06040F480602CE00868C0F3412002284C
:1006C00004D051F8800F20F4807022E0D1F880002F
:1006D00020F48070C1F88000086820F4C06040F405
:1006E00000700860B2FBF3F0401C00E0401E4A6955
:1006F000520501D50028F9D1486940050AD50320E3
:100700007047C0F34120022806D051F8800F40F412
:100710008070086000207047D1F8800040F480703D
:10072000C1F88000086820F4C06040F400700860E0
:10073000B2FBF3F0401C00E0401E4A695205DBD5D5
:100740000028F9D1D8E700000C00002040420F003B
:10075000007000400248816841F480418160704728
:10076000007000402DE9F0470E4605004FF00007ED
:1007700025D0DFF8AC81D8F8000000F00F00B042BF
:100780000CD2D8F8001021F00F013143C8F8001046
:10079000D8F8000000F00F00B04210D12968614C79
:1007A000C80741F2883A5AD06868DFF87C9103287C
:1007B00008D0022820682DD0400500282CDB01201D
:1007C000BDE8F08720688001F9D5E06800F00302F9
:1007D000E068C0F30310401C032A19D0534A00BF3D
:1007E000B2FBF0F0E268C2F306225043E268C2F3C3
:1007F0004162521C5200B0FBF2F0484517D9A06884
:1008000010F0F00F0CD0880711D5A86840B10EE0A9
:10081000474AE5E78003D0E700F092F8484506D95B
:10082000A06820F0F00040F08000A0608027A06861
:10083000696820F003000843A060FFF795FE814639
:1008400006E000BFFFF790FEA0EB090151453AD842
:10085000A068696800F00C00B0EB810FF2D1286845
:10086000810714D5400703D5A06840F4E060A0607C
:100870002878000705D5A06820F4605040F4E060B7
:10088000A060A068A96820F0F000084304E0802F71
:1008900003D1A06820F0F000A060D8F80010404616
:1008A00001F00F01B14216D9016821F00F01314367
:1008B0000160FFF759FE074607E000BFFFF754FE4F
:1008C000C11B514501D903207AE7D8F8000000F098
:1008D0000F00B042F2D12878400705D5A068E9683A
:1008E00020F4E0600843A0602878000706D5A068DF
:1008F000296920F4605040EAC100A06000F020F8AF
:10090000A1680C4AC1F30311515C01F01F01C840FA
:100910000949086009480068BDE8F047FFF742BE92
:10092000002002400010024000B4C4040024F4007F
:1009300000366E01CE1B00080C00002000000020D5
:10094000184910B58868C0F381021748012A0BD0F6
:100950008A68164BC2F38102022A06D08A68C2F363
:100960008102032A03D0002010BD184610BDCA68BA
:1009700002F00304CA68C2F30312521C032C02D013
:10098000B0FBF2F001E0B3FBF2F0CA68C968C2F351
:1009900006225043C1F34161491C4900B0FBF1F00C
:1009A00010BD0000001002400024F40000366E016B
:1009B0002DE9F84304007AD02078FA4DC00747D0DB
:1009C000A868E96800F00C0001F003010C2802D0CF
:1009D000082817D001E0032914D06068B0F5803FE3
:1009E00017D0B0F5A02F286817D020F480302860E9
:1009F000286820F4802028606068E0B1FFF7B4FD2B
:100A0000064614E02868800322D560680028D2D00A
:100A10001EE0286840F48030EDE740F48020286034
:100A2000F7E700BFFFF7A0FD801B642870D8286897
:100A30008003F7D50CE0FFF797FD064605E000BF01
:100A4000FFF792FD801B6428F0D828688003F7D454
:100A5000207880074CD5A868E96800F00C0001F008
:100A600003010C2802D004280DD001E002290AD08D
:100A7000E068002828682BD040F480702860FFF7D9
:100A800073FD064619E02868400502D5E068002895
:100A900091D06868217C20F0FE4040EA01606860E7
:100AA000C1480068FFF77EFD002800D120E076E114
:100AB000FFF75AFD801B0228B8D828684005F7D5F3
:100AC0006868217C20F0FE4040EA016068600FE029
:100AD00020F480702860FFF747FD064605E000BF60
:100AE000FFF742FD801B0228A0D828684005F7D4F4
:100AF0002078000729D560690028D5F8940013D024
:100B000040F00100C5F89400FFF72EFD064606E010
:100B100090E000BFFFF728FD801B022886D8D5F89B
:100B200094008007F6D510E020F00100C5F894008D
:100B3000FFF71AFD064604E0FFF716FD801B0228AA
:100B400078D8D5F894008007F6D42078400761D58E
:100B5000A86D0026C00008D4A86D40F08050A8659C
:100B6000A86D012600F08050009090480168C905EA
:100B700011D40168804641F480710160FFF7F4FCF4
:100B8000074604E0FFF7F0FCC01B022852D8D8F853
:100B90000000C005F6D5A068012815D00528D5F8B5
:100BA000900016D020F00100C5F89000D5F8900014
:100BB00020F00400C5F89000A06841F28838B8B170
:100BC000FFF7D2FC07460EE0D5F8900040F0010098
:100BD000F0E740F00400C5F89000F5E7FFF7C4FC2B
:100BE000C11B414526D8D5F890008007F6D50CE00A
:100BF000FFF7BAFC074604E0FFF7B6FCC11B41450E
:100C000018D8D5F890008007F6D41EB1A86D20F052
:100C10008050A8652078800629D5A0690028D5F8DD
:100C2000980013D040F00100C5F89800FFF79CFC35
:100C3000064606E077E000BFFFF796FC801B02281F
:100C400077D8D5F898008007F6D510E020F001009D
:100C5000C5F89800FFF788FC064604E0FFF784FC1F
:100C6000801B022865D8D5F898008007F6D4E06983
:100C7000F0B3A968C1F38101032961D00228286873
:100C800020F0807028600BD0E86820F00300E86056
:100C9000E86847490840E860FFF766FC04464BE017
:100CA000FFF762FC064604E0FFF75EFC801B0228AB
:100CB0003FD828688001F7D4F4E908016FF00F02EB
:100CC00002EB01110843218A5204490802EB415109
:100CD000A26841EA02210843217D4FF07E42490883
:100CE00002EB41610843217B40EAC160E96800E012
:100CF00062E0304A11400843E860286840F08070A4
:100D00002860E86840F08070E860FFF72DFC04463A
:100D100005E000BFFFF728FC001B022809D828685F
:100D20008001F7D548E004E0FFF71EFC001B022815
:100D300002D90320BDE8F88328688001F4D43BE0A1
:100D40000128F7D0E868226A00F00301914226D119
:100D5000616A00F0F0020901103991421FD1A26AC4
:100D600000F4FE41B1EB022F19D194F82C2000F0D1
:100D70007841B1EBC26F12D1218E00F4C002490854
:100D80004905A1F50011914209D194F8341000F001
:100D9000C06049084906A1F1007181420CD00120D0
:100DA000C8E7000000100240000000200070004072
:100DB000FFFFEEFE0C809F010020BBE710B5401E38
:100DC000B0F1807F01D3012010BD4FF0E0246061BD
:100DD0000F21601700F0CAFE0020A06107202061EB
:100DE000002010BD704770477047704770477047CC
:100DF000F0B590F83C20012A3AD0012580F83C500B
:100E0000022280F83D2003685A689C68194E1A4FE8
:100E1000B34201D0BB4204D122F4700C4A6842EACA
:100E20000C02DFF858C002EA0C02D1F800C04CEA0C
:100E3000020CC3F804C00268B2420DD0B2F1804F78
:100E40000AD00F4B9A4207D00E4B9A4204D0BA42B6
:100E500002D00D4B9A4204D1896824F080031943D3
:100E6000916080F83D50002180F83C100846F0BDAC
:100E70000220F0BD002C0140003401408FFFFFFD37
:100E8000000400400008004000400140704710B5D9
:100E9000040003D094F83D0010B107E0012010BD1C
:100EA000002084F83C00204600F022F8022084F85C
:100EB0003D00211D206800F033FC012084F848002B
:100EC00084F83E0084F83F0084F8400084F8410034
:100ED00084F8420084F8430084F8440084F8450014
:100EE00084F8460084F8470084F83D00002010BDD7
:100EF00008B500680B49884212D10B48016E41F4D5
:100F000080310166006E002200F4803000901146AE
:100F10001820FFF78FFBBDE808401820FFF77CBBC7
:100F200008BD0000004001400010024070B50446BA
:100F300090F83C00012814D0012584F83C50022090
:100F400084F83D0022689068344B184020F47F40BC
:100F500090600868702827D010DC10F00F0F03D0C5
:100F60004AE04FF0020070BD4FEA2012072A43D238
:100F7000DFE802F05050505048313900284BC21A77
:100F8000984247D009DCB0F5805F35D0B0F5005FFE
:100F900015D0B0F1101F2FD13CE0102A3AD0202AF2
:100FA00038D0502A28D135E0CB68D1E9012120681A
:100FB00000F00EFC2068816841F0770109E0CB6801
:100FC000D1E90121206800F003FC2068816841F428
:100FD0008041816010E0CA684968206800F0A2FD85
:100FE0005021206806E0CA684968206800F0ABFD1F
:100FF0006021206800F0F6FB84F83D50002084F862
:101000003C0070BDCA684968206800F08BFD402133
:101010002068EFE7226801461046EBE788FFCEFF25
:1010200020001000704770B50446006801694FF059
:101030000005C943890715D4C168C943890711D47C
:10104000E91E016101202077206880698007204621
:1010500002D0FFF7E7FF04E000F00AF9204600F0B5
:10106000DBF9257720680169C943490717D4C168AE
:10107000C943490713D46FF00401016102202077AE
:101080002068806910F4407F204602D0FFF7CAFF35
:1010900004E000F0EDF8204600F0BEF92577206866
:1010A0000169C943090716D4C168C943090712D4A5
:1010B0006FF008010161042020772068C069800773
:1010C000204602D0FFF7AEFF04E000F0D1F8204642
:1010D00000F0A2F9257720680169C943C90617D431
:1010E000C168C943C90613D46FF01001016108201B
:1010F00020772068C06910F4407F204602D0FFF7B7
:1011000091FF04E000F0B4F8204600F085F925775F
:1011100020680169C943C90708D1C168C943C90723
:1011200004D1891E0161204600F077F92068016929
:10113000C943090609D4C168C943090605D46FF03B
:10114000800101612046FFF74EFE20680169C94316
:10115000C90509D4C168C943090605D46FF4807173
:1011600001612046FFF73EFE20680169C943490638
:1011700009D4C168C943490605D46FF04001016133
:10118000204600F04BF920680169C943890609D45B
:10119000C168C943890605D46FF02001016120466A
:1011A000FFF722FE20680169C943C90209D4C1685A
:1011B000C943C90205D46FF4801101612046FFF7CD
:1011C00015FE20680169C943890209D4C168C94371
:1011D000890205D46FF4001101612046FFF705FE76
:1011E00020680169C943490209D4C168C943490259
:1011F00005D46FF4800101612046FFF7F8FD2068F7
:101200000169C94309020BD4C168C943090207D463
:101210006FF4000101612046BDE87040FFF736BE63
:1012200070BD000010B586B0044614216846FFF773
:1012300043F82068B0F1804F16D10C48C16C41F0E2
:101240000101C164C06C694600F0010005900E20E8
:101250000090022001900020029003900120049051
:101260004FF09040FFF796F806B010BD0010024016
:10127000704770B5044690F83C000D4601280BD02D
:10128000012084F83C000C2A45D007DC5AB1042A1E
:101290001BD0082A78D12CE0022070BD102A4ED035
:1012A000142A71D15DE0206800F0A6FA20688169F7
:1012B00041F0080181612068816921F004018161A8
:1012C000206881692A69114311E0206800F0E2FA80
:1012D0002068816941F4006181612068816921F49D
:1012E00080618161206881692A6941EA0221816106
:1012F0004AE0206800F016FB2068C16941F008014F
:10130000C1612068C16921F00401C1612068C1691F
:101310002A69114311E0206800F04CFB2068C16984
:1013200041F40061C1612068C16921F48061C1613B
:101330002068C1692A6941EA0221C16124E020686C
:1013400000F080FB2068016D41F008010165206814
:10135000016D21F0040101652068016D2A691143C6
:1013600011E0206800F0A6FB2068016D41F40061E7
:1013700001652068016D21F4806101652068016DBF
:101380002A6941EA02210165002084F83C0070BD11
:1013900010B5040003D094F83D0010B107E001201F
:1013A00010BD002084F83C00204600F023F8022005
:1013B00084F83D00211D206800F0B2F9012084F876
:1013C000480084F83E0084F83F0084F8400084F828
:1013D000410084F8420084F8430084F8440084F813
:1013E000450084F8460084F8470084F83D0000205A
:1013F00010BD000008B50068B0F1804F08D1054865
:10140000816D41F001018165806D00F00100009067
:1014100008BD000000100240704770477047FEE7AB
:1014200070B5104D0446012204212846FFF796F8B6
:10143000E01D012181400C4E89B200223046FFF7A9
:101440008DF8002C0CD1012204212846FFF786F8E4
:101450003046BDE8704001224FF6FF71FFF77EB8BD
:1014600070BD0000000C0048000800482DE9F04F56
:1014700087B014216846FEF71FFF3B48C16C41F05E
:101480000401C164C16C01F004010591C16C41F01B
:101490002001C164C16C01F020010591C16C41F0D3
:1014A0000101C164C16C01F001010591C16C41F001
:1014B0000801C164C16C01F008010591C16C41F0E3
:1014C0000201C164C06CDFF8A48000F00200059046
:1014D00001224FF47F414046FFF740F80022FF21F0
:1014E0004046FFF73BF84FF480764FF090490022DA
:1014F00031464846FFF732F8DFF874A00122042194
:101500005046FFF72BF8DFF86CB04FF44877002215
:1015100039465846FFF722F84FF6FF700090012534
:101520000024CDE90154694640460394FEF732FF9A
:101530000096CDE90154694648460394FEF72AFF18
:1015400004200090CDE90154694650460394FEF70B
:1015500021FF0097CDE90154694658460394FEF7F0
:1015600019FF07B0BDE8F08F0010024000080048E6
:10157000000C00480004004810B588B0002418484A
:1015800000940194029403940494059413490694DE
:1015900001604F21C0E9011442F20F71C0E9031448
:1015A00044618461FFF773FC08B1FEF7F0FE4FF46D
:1015B0008050009069460A48FFF7B8FC08B1FEF772
:1015C000E6FE049404A906480694FFF711FC0028DF
:1015D00001D0FEF7DCFE08B010BD00000040014065
:1015E0005C00002010B58AB00024079408941C21E8
:1015F00068460994FEF760FE20484FF08041016084
:101600004F21C0E9011442F20F71C0E90314846153
:10161000FFF7BEFE08B1FEF7BAFE079407A9174808
:101620000994FFF7E5FB08B1FEF7B1FE60200090DA
:101630000A20CDE901040422694610480494FFF70A
:1016400018FE08B1FEF7A3FE142001900822694697
:101650000A48FFF70EFE08B1FEF799FE1E20019022
:101660000C2269460548FFF704FE08B1FEF78FFE1D
:101670000248FFF7D7FD0AB010BD0000100000209F
:10168000FEE7FEE770477047FEF774BF00B593B002
:1016900038216846FEF710FE14210EA8FEF70CFE56
:1016A0004FF40070FEF7F8FF0220C10103914021C2
:1016B00004910121CDE9080100900A21CDE90A1029
:1016C00007900C900D906846FFF772F908B172B65A
:1016D000FEE70F200E9003200F9000201090119035
:1016E000129002210EA8FFF73DF8002801D072B633
:1016F000FEE713B000BD00000548016841F4700129
:10170000016003494FF000608039086070470000B5
:1017100088ED00E00148FFF786BC00005C00002077
:101720002DE9F0430268234B234D244E244C4FF007
:101730008049984207D0484505D0A84203D0B0421E
:1017400001D0A04203D122F070074A683A431D4FEE
:10175000DFF874C0DFF8748098420DD048450BD094
:10176000A84209D0B04207D0A04205D0B84203D069
:10177000604501D0404503D122F44075CA682A4330
:101780004D6922F080022A4302608A68C2620A68B8
:101790008262984207D0A04205D0B84203D060458B
:1017A00001D0404501D10969016301214161BDE8D2
:1017B000F0830000002C01400004004000080040BD
:1017C0000034014000400140004401400048014015
:1017D00010B5846842EA032224F47F440A4322437A
:1017E000826010BD8268034B1A400A4342F0070131
:1017F000816070478FFFCFFF2DE9F043026A22F02E
:1018000001020262056A436882691C4C25F00205E8
:1018100022400C6822F0030214438A68194E2A43BE
:10182000174D194FDFF864C0DFF86490A84207D065
:10183000B04205D0B84203D0604501D0484506D13A
:1018400022F00808CA6842EA080222F00402A8420C
:1018500007D0B04205D0B84203D0604501D048451A
:1018600005D14D6923F440731D438B692B434360BD
:101870008461496841630262BDE8F0838FFFFEFF27
:10188000002C014000340140004001400044014070
:1018900000480140F0B5026A22F010020262056AB7
:1018A00042688369194C1B4E23400C6823F4407333
:1018B00043EA042425F020038D6843EA0513144D00
:1018C000A84201D0B04206D1CF6823F0800343EA9A
:1018D000071323F04003A8420AD0B04208D00E4DAF
:1018E000A84205D00D4DA84202D00D4DA84207D107
:1018F0004D6922F4406242EA85028D6942EA85021E
:1019000042608461496881630362F0BDFF8FFFFE1E
:10191000002C0140003401400040014000440140DF
:1019200000480140F0B5026A22F480720262056A42
:101930004368C269194C1B4E22400C6822F0030216
:10194000144325F400728D6842EA0522144DA84222
:1019500001D0B04206D1CF6822F4006242EA0722E9
:1019600022F48062A8420AD0B04208D00E4DA842AC
:1019700005D00E4DA84202D00D4DA84207D14D69A9
:1019800023F4405343EA05138D6943EA051343608A
:10199000C4614968C1630262F0BD00008FFFFEFFB1
:1019A000002C01400034014000400140004401404F
:1019B00000480140F0B5026A22F480520262056AD2
:1019C0004268C369194C1B4E23400C6823F44073D2
:1019D00043EA042425F400538D6843EA0533144D8B
:1019E000A84201D0B04206D1CF6823F4004343EAB5
:1019F000073323F48043A8420AD0B04208D00E4DEA
:101A0000A84205D00D4DA84202D00D4DA84207D1E5
:101A10004D6922F4404242EA85128D6942EA8512FC
:101A20004260C461496801640362F0BDFF8FFFFE3C
:101A3000002C0140003401400040014000440140BE
:101A40000048014030B5026A22F480320262046A22
:101A50004268036D114D2B400D681D4324F4003383
:101A60000C8943EA04430E4CA0420BD00D4CA0421B
:101A700008D00D4CA04205D00C4CA04202D00C4C1A
:101A8000A04204D14C6922F4803242EA042242602E
:101A9000056549688164036230BD00008FFFFEFF69
:101AA000002C01400034014000400140004401404E
:101AB0000048014030B5026A22F480120262046AD2
:101AC0004268036D114D24F400142B400D6843EA65
:101AD00005230D8944EA05540D4DA8420BD00D4D48
:101AE000A84208D00C4DA84205D00C4DA84202D007
:101AF0000B4DA84204D14D6922F4802242EA85228E
:101B0000426003654968C164046230BDFF8FFFFE17
:101B1000002C0140003401400040014000440140DD
:101B20000048014010B5036A046A24F0010404620D
:101B3000846924F0F00444EA021423F00A020A4300
:101B40008461026210BD10B5036A23F010030362C2
:101B50008369046A23F4704343EA023224F0A00349
:101B600043EA01118261016210BDFEE70907090E17
:101B7000002804DB00F1E02080F80014704700F03A
:101B80000F0000F1E02080F8141D7047FEF7FAFC0A
:101B9000FFF77CFDFFF76AFCFFF724FDFFF7ECFC85
:101BA00044F620640120FFF73BFC0220FFF738FCDD
:101BB0000320FFF735FC2046FEF7E3FB0020FFF78C
:101BC0002FFCEFE74FF04070E1EE100A7047000085
:101BD00000000000000001020304060708090000DD
:101BE000001C000800000020100000001402000883
:101BF000101C000810000020F80600003002000849
:101C00001000000001000000000000000024F400AB
:04000005080001D915
:00000001FF
